:03000000020034C7
:0300910002000367
:0300030002028A6C
:200094009000BD741EF07405A3F0E4A3F09000C07463F0E4A3F090051D75F0001220887526
:2000B4008207121BA21227D6AC82AD83AEF0FFE4C0E074C0C0E0747FC0E07444C0E08C8279
:2000D4008D838EF0EF12323BAC82AD83AEF0FFE58124FCF581C004C005C006C00790000073
:2000F40075F0257444121E75AC82AD83AEF0FFE58124FCF581900001ECF0EDA3F0EEA3F0A0
:20011400EFA3F0C004C005C006C00790800075F02274441221BAAF82E58124FCF581EF607B
:2001340064758206121BA21227D6AC82AD83AEF0FFE4C0E074C0C0E0747FC0E07444C0E02E
:200154008C828D838EF0EF12323BAC82AD83AEF0FFE58124FCF581C004C005C006C00790E4
:20017400400075F04E7445121E75AC82AD83AEF0FFE58124FCF581900001ECF0EDA3F0EE48
:20019400A3F0EFA3F0900001E0FCA3E0FDA3E0FEA3E08C828D838EF01227951207D9AF82B8
:2001B4000F0F900580EFF022900005E4F0A3F0A3F0A3F07F00BF64005066EF241DF582E4F2
:2001D4003405F583E0FE7D00900005E0F510A3E0F511A3E0F512A3E0F5138E828D83C00700
:2001F4001227C9A882AC83ADF0FEC000C004C005C0068510828511838512F0E5131225F40C
:20021400AB82AC83ADF0FEE58124FCF581D007900005EBF0ECA3F0EDA3F0EEA3F00F8095EC
:20023400900005E0FCA3E0FDA3E0FEA3E0FFE4C0E0C0E074C8C0E07442C0E08C828D838EB4
:20025400F0EF12323BAC82AD83AEF0FFE58124FCF581900005ECF0EDA3F0EEA3F0EFA3F041
:20027400900005E0FCA3E0FDA3E0FEA3E08C828D838EF002279553C6F753BFEB1213F29067
:20029400000A121405121B9390D4C075F001E4121AEE90C20075F001E41218B2D2AF900044
:2002B4003212140590340E75F0801219B57582781209F37415C0E07434C0E07480C0E02391
:2002D400C0E004C0E014C0E0121101E58124FAF5817F00BF64005010C00712009490000AEB
:2002F400121405D0070F80EB1201BCAF8290000AEFF07E009000DF740AF0E4A3F08F828E84
:200314008312264DAE82900009EE75F00AA4F0120B1420B22330B2FD900009E0FFBF0A00C1
:2003340050067D007E008009EF24F6FFFD3395E0FE900009EDF0802320B42030B4FD9000A6
:2003540009E0FF247350067D967E008009740A2FFFFD3395E0FE900009EDF012009412011C
:20037400BCAF8290000AEFF0900009E0FEC3EF9EE433FD900582F0ED700302047BE4FDFC63
:20039400EEC39FFEED9CFD8E828D831227C9AC82AD83AEF0FF900585E0F8A3E0F9A3E0FA6D
:2003B400A3E0FBC007C006C005C00474CDC0E014C0E0744CC0E0743EC0E0888289838AF0BE
:2003D400EB1225F4A882A983AAF0FBE58124FCF581D004D005D006D007C000C001C002C0B3
:2003F400038C828D838EF0EF121E75AC82AD83AEF0FFE58124FCF581C004C005C006C007A9
:2004140090000075F0C87442121E75AC82AD83AEF0FFE58124FCF581C007C006C005C004A3
:20043400C004C005C006C00790000075F0C874421221BAAB82E58124FCF581D004D005D090
:2004540006D007EB600A780079007AC87B4280088C008D018E028F03888289838AF0EB1215
:200474002795121B858006758200121B85900582E0700302053A900009E0FE7F0090000A90
:20049400E0FC7D00EEC39CFAEF9DFBC3EA9405EB64809480400302053A900589E0FAA3E0F9
:2004B400FB8A008B01C3E894C8E99400500E90058974012AF0E43BA3F0020551900589E47C
:2004D400F0A3F0EEC39CFEEF9DFF900583E0FCA3E0FD900583EE2CF0EF3DA3F0900583E062
:2004F400FEA3E0FF8E828F831227C9AC82AD83AEF0FFE4C0E0C0E074C8C0E07442C0E08C67
:20051400828D838EF0EF12323BAC82AD83AEF0FFE58124FCF581900585ECF0EDA3F0EEA34B
:20053400F0EFA3F08017900589E4F0A3F0900583F0A3F0900585F0A3F0A3F0A3F0900581A5
:20055400E0FFBF0A005009900581EF04F002064D900581E4F090000AE0FF7E00C007C006CA
:20057400741BC0E07434C0E07480C0E0740BC0E07400C0E0E4C0E0122480E58124F8F581F7
:2005940090000B75F0001219B5900009E0FF7E0090000AE0FD7C00C007C006C005C00474F4
:2005B4001FC0E07434C0E07480C0E023C0E07403C0E0E4C0E0121101E58124F6F581900084
:2005D400507403F09000517401F0900052F0900053742AF07434A3F07480A3F075822812D4
:2005F4000E309000507403F09000517401F0900052F0900053742EF07434A3F07480A3F013
:20061400758268120E30900582E060067E327F3480047E347F347D809000507403F090009A
:2006340051E4F090005204F0900053EEF0EFA3F0EDA3F0758200120E3090000A12140502DA
:0206540003267B
:20340E004E534845540A004E534845540025640A0025336425252533642525004E4F5700FD
:08342E005345540048002D0035
:20512F00000000000000000000000000000000000000000000000000000000000000000060
:20514F00000000000000000000000000000000000000000000000000000000000000000040
:20516F00000000000000000000000000000000000000000000000000000000000000000020
:0E518F00000000000000000000000000000012
:20065600E58290001BF0E0FF24FC402AEF2F900668738006800B8010801590343675F08075
:200676002290365E75F0802290395E75F08022903F5E75F0802290343675F08022AFF0AE67
:2006960083E582900022F0EEA3F0EFA3F0900022E0FDA3E0FEA3E0FF7436C0E07434C0E091
:2006B6007480C0E08D828E838FF01200061581158115816002802C90001CE0FAA3E0FBA362
:2006D600E0FC8A828B838CF0740612206D90001FE0FAA3E0FBA3E0FC8A828B838CF07408E1
:2006F60002206D745EC0E07436C0E07480C0E08D828E838FF012000615811581158160022A
:20071600802C90001CE0FAA3E0FBA3E0FC8A828B838CF0740812206D90001FE0FAA3E0FBDC
:20073600A3E0FC8A828B838CF0740802206D745EC0E07439C0E07480C0E08D828E838FF091
:200756001200061581158115816002802C90001CE0FAA3E0FBA3E0FC8A828B838CF0740806
:2007760012206D90001FE0FAA3E0FBA3E0FC8A828B838CF0741002206D745EC0E0743FC0B0
:20079600E07480C0E08D828E838FF012000615811581158160012290001CE0FDA3E0FEA326
:2007B600E0FF8D828E838FF0741012206D90001FE0FDA3E0FEA3E0FF8D828E838FF07418C8
:0307D60002206D91
:203436000000000000000000002F000000000700070000147F147F1400242A7F2A12006294
:203456006408132300364955225000000503000000001C224100000041221C000014083E0E
:2034760008140008083E0808000000A0600000080808080800006060000000201008040296
:20349600003E5149453E0000427F4000004261514946002141454B31001814127F10002720
:2034B60045454539003C4A49493000017109050300364949493600064949291E0000363691
:2034D600000000005636000000081422410000141414141400004122140800020151090685
:2034F60000324959513E007C1211127C007F49494936003E41414122007F4141221C007FB5
:2035160049494941007F09090901003E4149497A007F0808087F0000417F4100002040419B
:203536003F01007F08142241007F40404040007F020C027F007F0408107F003E4141413E51
:20355600007F09090906003E4151215E007F091929460046494949310001017F0101003F42
:203576004040403F001F2040201F003F4038403F00631408146300070870080700615149C3
:20359600454300007F41410000552A552A55000041417F00000402010204004040404040EB
:2035B600000001020400002054545478007F4844443800384444442000384444487F0038F0
:2035D6005454541800087E0901020018A4A4A47C007F080404780000447D40000040808463
:2035F6007D00007F102844000000417F4000007C04180478007C08040478003844444438E9
:2036160000FC242424180018242418FC007C0804040800485454542000043F444020003C85
:203636004040207C001C2040201C003C4030403C004428102844001CA0A0A07C004464541C
:203656004C4414141414141400000000000000000000065F5F060000000303000303000076
:20367600147F7F147F7F1400242E6B6B3A120000466630180C666200307A4F5D377A480071
:203696000407030000000000001C3E63410000000041633E1C000000082A3E1C1C3E2A08F2
:2036B60008083E3E080800000080E0600000000008080808080800000000606000000000A8
:2036D6006030180C060301003E7F71594D7F3E0040427F7F40400000627359496F66000039
:2036F600226349497F360000181C16537F7F5000276745457D3900003C7E4B497930000038
:20371600030371790F070000367F49497F360000064F49693F1E0000000066660000000061
:203736000080E66600000000081C3663410000002424242424240000004163361C080000D3
:20375600020351590F0600003E7F415D5D1F1E007C7E13137E7C0000417F7F49497F3600FA
:203776001C3E634141632200417F7F41633E1C00417F7F495D416300417F7F491D01030000
:203796001C3E6341517372007F7F08087F7F000000417F7F41000000307040417F3F010073
:2037B600417F7F081C776300417F7F41406070007F7F0E1C0E7F7F007F7F060C187F7F00CC
:2037D6001C3E6341633E1C00417F7F49090F06001E3F21717F5E0000417F7F09197F660060
:2037F600266F4D597332000003417F7F410300007F7F40407F7F00001F3F60603F1F000055
:203816007F7F3018307F7F0043673C183C674300074F78784F070000476371594D67730003
:20383600007F7F41410000000103060C183060000041417F7F000000080C0603060C08007D
:2038560080808080808080800000030704000000207454543C784000417F3F4848783000DD
:20387600387C44446C280000307848493F7F4000387C54545C180000487E7F4903020000C8
:2038960098BCA4A4F87C0400417F7F08047C780000447D7D4000000060E08080FD7D000087
:2038B600417F7F10386C440000417F7F400000007C7C18381C7C78007C7C04047C780000F0
:2038D600387C44447C38000084FCF8A4243C1800183C24A4F8FC8400447C784C041C1800FE
:2038F600485C54547424000000043E7F442400003C7C40403C7C40001C3C60603C1C000005
:203916003C7C7038707C3C00446C3810386C44009CBCA0A0FC7C00004C64745C4C640000E9
:2039360008083E774141000000000077770000004141773E080800000203010302030100E6
:20395600000000000000000000000000000000000000000000000000000000F00000000061
:203976000000000B000000000000F000F000000000000000000000000040F040C0700000A6
:20399600000603020F020000006090FC101000000008083F09060000609090F0804000005B
:2039B600000201060909060000E01010102000000609090A0C060800000000F00000000074
:2039D60000000000000000000000F0080808000000000F101010000000080808F000000082
:2039F600001010100F000000008080E0808000000000030003000000008080F0808000009C
:203A16000000000700000000000000000000000000000038000000000080808080800000D1
:203A360000000000000000000000000000000000000000080000000000000000E018000070
:203A560000300C030000000000E0101010E000000007080908070000002010F000000000DA
:203A76000008080F080800000010101010E0000000080C0A0908000000109090D020000092
:203A9600000808080807000000E0000000E00000000302020207000000F0909090900000E9
:203AB600000408080807000000C0A090909000000007080808070000003010109070000047
:203AD6000000000C03000000006090909070000000070808080F000000E0101010E0000023
:203AF600000909090503000000000040000000000000000800000000000000400000000005
:203B16000000003800000000008040402020000000010102040400000040404040400000CB
:203B36000002020202020000002020404080000000040402010100000020101090600000E9
:203B56000000000B0000000000E0905050E00000001F2728280F00000000E010E0000000DF
:203B7600080702020207080000F0909090600000000F0808080D020000E0101010100000B5
:203B9600000708080808000000F0101010608000000F08080806010000F09090901000000A
:203BB600000F08080808000000F0101010100000000F01010101000080601010101000005D
:203BD60001060808090F000000F0808080F00000000F0000000F0000001010F010100000F2
:203BF6000008080F080800000000001010F00000000408080807000000F00000806000007D
:203C1600000F01010106080000F0000000000000000F08080808000000F0608060F000002F
:203C3600000F0000000F000000F0608000F00000000F0001060F000000E01010106080007B
:203C5600000708080806010000F0101010F00000000F01010100000000E010101060800016
:203C7600000708384846010000F0101010E00000000F0101030C0000006090901010000098
:203C96000008080809060000001010F0101000000000000F0000000000F0000000F00000C8
:203CB600000708080807000010E0000000E010000000070807000000708000C00080700032
:203CD600000F0F000F0F00000030408040300000000C0201020C00001020C000C020100035
:203CF6000000000F000000000010109050300000000C0A09080800000000FC040404000038
:203D160000001F10101000000018608000000000000000030C30000000040404FC000000FF
:203D3600001010101F0000000080601060800000000000000000000000000000000000004E
:203D560000101010101000000000106000000000000000000000000000404040C00000000D
:203D7600000E0A0A060F080000F8404040800000000F080808070000008040404040000008
:203D960000070808080800000080404040F8000000070808080F00000080404040800000C0
:203DB60000070A0A0A0B00008080C0B08888000000000700000000000080404040C0000036
:203DD60000474848683F000000F8404040800000000F0000000F0000004040D01000000099
:203DF6000008080F0808000000004040D0000000004040403F00000000F8000000C0000077
:203E1600000F0202030C0000000808F0000000000000000F08080000008040C040C00000CB
:203E3600000F000F000F000000C0404040800000000F0000000F0000008040404080000061
:203E5600000708080807000000C0404040800000007F0808080F00000080404040C0000080
:203E760000070808087F00000040C0404040800000080F08080000000080404040400000A7
:203E9600000909090A0E00004040F04040400000000007080808000000C0000000C000000A
:203EB60000070808080F080000C0000000C000000000070806010000408000C000804000E0
:203ED600000F0F000F0F00000040800080400000000804030408000000C0000000C0000075
:203EF600004126180601000000404040C040000000080E0B0808000000008078080800002D
:203F16000000001F10100000000000FC000000000000003F00000000000808788000000009
:203F36000010101F00000000008080000000000000010001020300000010289040202000DD
:203F5600000000030408080000000000000000000000000000000000000000000000000034
:203F7600000000000000000000000000000000000000000000000000000000F8F8F8000043
:203F960000000000000000000000007F7F7F0000000000000000000000000C1E1E0C00003A
:203FB60000000000000000000000FCFCFC000000FCFCFC0000000000000000030000000000
:203FD60000030000000000000000000000000000000000000000000000000000F0F80000E0
:203FF60000F0F8000000000000C0C3F3FFC7C3C3F3FFC7C3030000000000101F0F00001034
:204016001F070000000000000000C0F0F0783E3E3870702000000000000003070F1E3C38ED
:2040360078F0E0C00000000000080E0C1C18F8F81C0F0F03000000000000387C447C3880B3
:2040560080808080800000000000F0FCFE0F030101000000010707000000030F1F3C3060C0
:204076006040404060383800000000C0F0F0381818F0E0000000000000C0E0F17F3F3CFED9
:20409600E7C38180C0F8781800030F0F1C181818190F0F0F0F0D1C180000FCFCFC00000008
:2040B6000000000000000000000000030000000000000000000000000000000000000000E7
:2040D6000000000000000000000000C0F0FC1E0400000000000000000000FCFFFF00000002
:2040F60000000000000000000000011F7FF8C000000000000000000000041EFCF0C0000085
:20411600000000000000000000000000FFFFFC0000000000000000000000C0F87F1F010038
:204136000000000000000000002038B0F0FEFEF0B038100000000000000000030100000188
:20415600030000000000000000000000000000000000000000000000000000000000C0C0C6
:204176000000000000000000001818181818FFFF1818181818000000000000000000030335
:20419600000000000000000000000000000000000000000000000000000000000000000009
:2041B600000000000000000000008C9EFE7C00000000000000000000000000000000000045
:2041D600000000000000000000606060606060000000000000000000000000000000000089
:2041F6000000000000000000000000000000000000000000000000000000000000000000A9
:20421600000000000000000000000C1E1E0C00000000000000000000000000000080F87E3E
:204236000600000000000000000000C0F83F0700000000000000000000C0FC3F0300000066
:2042560000000000000000000000C0F0F8783C1C1C3C78F8F0C0000000FEFFFFFF0000005D
:20427600000000FFFFFFFE000000071F3F3E787070783E3F1F07000000000030383838FC43
:20429600FCFCFC000000000000000000000000FFFFFFFF0000000000000000707070707FD9
:2042B6007F7F7F707070700000207078381C1C1C1C3CF8F8F0C0000000000000000080C0DF
:2042D600E0F87F3F0F0300000070787C7E7F7F77737170707070700000103078381C1C1C71
:2042F6001C3CF8F8F0C0000000000000003838383C7C7FEFC7C1000000181C383870707066
:204316007078783F3F1F0700000000000080E0F83CFCFCFCFC00000080E0F0FCBF8F838161
:2043360080FFFFFFFF8080000303030303030303037F7F7F7F030300000000FCFCFC1C1CA2
:204356001C1C1C1C1C1C00000000001F3F1F181C1C3C3CF8F8F0C00000101C3838707070CE
:2043760070783C3F1F0F03000000C0E0F0F8381C1C1C1C387810000000FCFFFFFF7018180A
:204396001C1C3CF8F8F0C0000000071F1F3C38707070783F1F0F0300001C1C1C1C1C1C1C3E
:2043B6001C9CFCFCFC3C1C00000000000000C0F8FEFF0F03000000000000000000787F7FA6
:2043D6007F000000000000000000E0F0F83C1C1C1C1C38F8F0E000000080C1E77F3E1C3C97
:2043F6003878FCEFE7C1800000071F3F387870707070383F1F0F07000080E0F0F83C1C1CA7
:204416001C3878F0F0C0000000071F3F3F78707030381CFFFFFF7E0000101038387070703F
:0844360070383E1F0F03000067
:2007D900AF83E582900025F0EFA3F0900025E0FEA3E0FF9000DA74E4F0740CA3F08E828FC7
:1707F90083122548AE82AF83EE243EF582EF3444F583E493F58222CF
:20443E0000000000000102030506070809090A0B0C0D0D0E0F0F101011121213131414150D
:20445E00151616171718181919191A1A1B1B1C1C1C1D1D1D1E1E1F1F1F20202021212122C1
:20447E0022222323232424242425252526262627272727282828282929292A2A2A2A2B2B4B
:20449E002B2B2C2C2C2C2D2D2D2D2E2E2E2E2F2F2F2F2F3030303031313131313232323224
:2044BE00333333333334343434343535353535363636363637373737373838383838393927
:2044DE003939393A3A3A3A3A3A3B3B3B3B3B3C3C3C3C3C3C3D3D3D3D3D3D3E3E3E3E3E3E46
:2044FE003F3F3F3F3F3F404040404040414141414141424242424242434343434343434479
:20451E004444444444454545454545454646464646464647474747474747484848484848BB
:20453E0048494949494949494A4A4A4A4A4A4A4B4B4B4B4B4B4B4B4C4C4C4C4C4C4C4D4D0A
:20455E004D4D4D4D4D4D4E4E4E4E4E4E4E4F4F4F4F4F4F4F4F505050505050505051515162
:20457E005151515151525252525252525252535353535353535354545454545454545555C4
:20459E0055555555555555565656565656565656575757575757575757585858585858582D
:2045BE0058585959595959595959595A5A5A5A5A5A5A5A5A5B5B5B5B5B5B5B5B5B5C5C5C9B
:2045DE005C5C5C5C5C5C5C5D5D5D5D5D5D5D5D5D5E5E5E5E5E5E5E5E5E5E5F5F5F5F5F5F0E
:2045FE005F5F5F5F6060606060606060606061616161616161616161626262626262626287
:20461E00626263636363636363636363636464646464646464646465656565656565656502
:20463E00656566666666666666666666666767676767676767676767686868686868686883
:20465E0068686869696969696969696969696A6A6A6A6A6A6A6A6A6A6A6B6B6B6B6B6B6B06
:20467E006B6B6B6B6B6C6C6C6C6C6C6C6C6C6C6C6C6D6D6D6D6D6D6D6D6D6D6D6E6E6E6E8E
:20469E006E6E6E6E6E6E6E6E6F6F6F6F6F6F6F6F6F6F6F6F70707070707070707070707018
:2046BE007071717171717171717171717172727272727272727272727273737373737373A3
:2046DE00737373737373747474747474747474747474747575757575757575757575757535
:2046FE007676767676767676767676767677777777777777777777777777787878787878C3
:20471E007878787878787879797979797979797979797979797A7A7A7A7A7A7A7A7A7A7A57
:20473E007A7A7B7B7B7B7B7B7B7B7B7B7B7B7B7B7C7C7C7C7C7C7C7C7C7C7C7C7C7C7D7DEB
:20475E007D7D7D7D7D7D7D7D7D7D7D7D7E7E7E7E7E7E7E7E7E7E7E7E7E7E7F7F7F7F7F7F81
:20477E007F7F7F7F7F7F7F7F7F80808080808080808080808080808181818181818181811B
:20479E008181818181818282828282828282828282828282828383838383838383838383B6
:2047BE00838383838484848484848484848484848484848585858585858585858585858552
:2047DE008585868686868686868686868686868686878787878787878787878787878787EE
:2047FE0087888888888888888888888888888888888989898989898989898989898989898D
:20481E00898A8A8A8A8A8A8A8A8A8A8A8A8A8A8A8A8B8B8B8B8B8B8B8B8B8B8B8B8B8B8B2C
:20483E008B8C8C8C8C8C8C8C8C8C8C8C8C8C8C8C8C8D8D8D8D8D8D8D8D8D8D8D8D8D8D8DCC
:20485E008D8D8E8E8E8E8E8E8E8E8E8E8E8E8E8E8E8E8F8F8F8F8F8F8F8F8F8F8F8F8F8F6E
:20487E008F8F8F909090909090909090909090909090909091919191919191919191919111
:20489E009191919191929292929292929292929292929292929293939393939393939393B5
:2048BE0093939393939393939494949494949494949494949494949494959595959595955B
:2048DE00959595959595959595959596969696969696969696969696969696969697979702
:2048FE009797979797979797979797979797979898989898989898989898989898989898A9
:20491E0098999999999999999999999999999999999999999A9A9A9A9A9A9A9A9A9A9A9A4E
:20493E009A9A9A9A9A9A9B9B9B9B9B9B9B9B9B9B9B9B9B9B9B9B9B9B9B9C9C9C9C9C9C9CF8
:20495E009C9C9C9C9C9C9C9C9C9C9C9C9D9D9D9D9D9D9D9D9D9D9D9D9D9D9D9D9D9D9D9EA4
:20497E009E9E9E9E9E9E9E9E9E9E9E9E9E9E9E9E9E9E9F9F9F9F9F9F9F9F9F9F9F9F9F9F4B
:20499E009F9F9F9F9FA0A0A0A0A0A0A0A0A0A0A0A0A0A0A0A0A0A0A0A0A1A1A1A1A1A1A1F7
:2049BE00A1A1A1A1A1A1A1A1A1A1A1A1A1A2A2A2A2A2A2A2A2A2A2A2A2A2A2A2A2A2A2A2A6
:2049DE00A2A3A3A3A3A3A3A3A3A3A3A3A3A3A3A3A3A3A3A3A3A4A4A4A4A4A4A4A4A4A4A44F
:2049FE00A4A4A4A4A4A4A4A4A4A5A5A5A5A5A5A5A5A5A5A5A5A5A5A5A5A5A5A5A5A6A6A6FF
:204A1E00A6A6A6A6A6A6A6A6A6A6A6A6A6A6A6A6A6A6A7A7A7A7A7A7A7A7A7A7A7A7A7A7AA
:204A3E00A7A7A7A7A7A7A8A8A8A8A8A8A8A8A8A8A8A8A8A8A8A8A8A8A8A8A8A9A9A9A9A959
:204A5E00A9A9A9A9A9A9A9A9A9A9A9A9A9A9A9A9AAAAAAAAAAAAAAAAAAAAAAAAAAAAAAAA08
:204A7E00AAAAAAAAAAABABABABABABABABABABABABABABABABABABABABABABACACACACACB8
:204A9E00ACACACACACACACACACACACACACACACACADADADADADADADADADADADADADADADAD68
:204ABE00ADADADADADADAEAEAEAEAEAEAEAEAEAEAEAEAEAEAEAEAEAEAEAEAEAEAFAFAFAF1A
:204ADE00AFAFAFAFAFAFAFAFAFAFAFAFAFAFAFAFAFAFB0B0B0B0B0B0B0B0B0B0B0B0B0B0CA
:204AFE00B0B0B0B0B0B0B0B0B1B1B1B1B1B1B1B1B1B1B1B1B1B1B1B1B1B1B1B1B1B1B1B27F
:204B1E00B2B2B2B2B2B2B2B2B2B2B2B2B2B2B2B2B2B2B2B2B2B3B3B3B3B3B3B3B3B3B3B32C
:204B3E00B3B3B3B3B3B3B3B3B3B3B3B3B4B4B4B4B4B4B4B4B4B4B4B4B4B4B4B4B4B4B4B4E3
:204B5E00B4B4B4B5B5B5B5B5B5B5B5B5B5B5B5B5B5B5B5B5B5B5B5B5B5B5B6B6B6B6B6B694
:204B7E00B6B6B6B6B6B6B6B6B6B6B6B6B6B6B6B6B6B7B7B7B7B7B7B7B7B7B7B7B7B7B7B748
:204B9E00B7B7B7B7B7B7B7B7B7B8B8B8B8B8B8B8B8B8B8B8B8B8B8B8B8B8B8B8B8B8B8B800
:204BBE00B9B9B9B9B9B9B9B9B9B9B9B9B9B9B9B9B9B9B9B9B9B9B9B9BABABABABABABABAAF
:204BDE00BABABABABABABABABABABABABABABABABBBBBBBBBBBBBBBBBBBBBBBBBBBBBBBB67
:204BFE00BBBBBBBBBBBBBBBBBCBCBCBCBCBCBCBCBCBCBCBCBCBCBCBCBCBCBCBCBCBCBCBC1F
:204C1E00BDBDBDBDBDBDBDBDBDBDBDBDBDBDBDBDBDBDBDBDBDBDBDBDBDBEBEBEBEBEBEBECF
:204C3E00BEBEBEBEBEBEBEBEBEBEBEBEBEBEBEBEBEBEBFBFBFBFBFBFBFBFBFBFBFBFBFBF88
:204C5E00BFBFBFBFBFBFBFBFBFBFBFC0C0C0C0C0C0C0C0C0C0C0C0C0C0C0C0C0C0C0C0C041
:204C7E00C0C0C0C0C1C1C1C1C1C1C1C1C1C1C1C1C1C1C1C1C1C1C1C1C1C1C1C1C1C2C2C2F7
:204C9E00C2C2C2C2C2C2C2C2C2C2C2C2C2C2C2C2C2C2C2C2C2C2C3C3C3C3C3C3C3C3C3C3AC
:204CBE00C3C3C3C3C3C3C3C3C3C3C3C3C3C3C3C3C4C4C4C4C4C4C4C4C4C4C4C4C4C4C4C466
:204CDE00C4C4C4C4C4C4C4C4C4C5C5C5C5C5C5C5C5C5C5C5C5C5C5C5C5C5C5C5C5C5C5C51F
:204CFE00C5C5C5C6C6C6C6C6C6C6C6C6C6C6C6C6C6C6C6C6C6C6C6C6C6C6C6C6C6C7C7C7D6
:204D1E00C7C7C7C7C7C7C7C7C7C7C7C7C7C7C7C7C7C7C7C7C7C7C7C7C8C8C8C8C8C8C8C88D
:204D3E00C8C8C8C8C8C8C8C8C8C8C8C8C8C8C8C8C8C8C9C9C9C9C9C9C9C9C9C9C9C9C9C947
:204D5E00C9C9C9C9C9C9C9C9C9C9C9C9C9CACACACACACACACACACACACACACACACACACACA02
:204D7E00CACACACACACACACACBCBCBCBCBCBCBCBCBCBCBCBCBCBCBCBCBCBCBCBCBCBCBCBBD
:204D9E00CBCBCBCCCCCCCCCCCCCCCCCCCCCCCCCCCCCCCCCCCCCCCCCCCCCCCCCCCCCCCDCD76
:204DBE00CDCDCDCDCDCDCDCDCDCDCDCDCDCDCDCDCDCDCDCDCDCDCDCDCDCECECECECECECE2E
:204DDE00CECECECECECECECECECECECECECECECECECECECECECFCFCFCFCFCFCFCFCFCFCFEA
:204DFE00CFCFCFCFCFCFCFCFCFCFCFCFCFCFCFCFCFD0D0D0D0D0D0D0D0D0D0D0D0D0D0D0A6
:204E1E00D0D0D0D0D0D0D0D0D0D0D0D0D0D1D1D1D1D1D1D1D1D1D1D1D1D1D1D1D1D1D1D161
:204E3E00D1D1D1D1D1D1D1D1D1D2D2D2D2D2D2D2D2D2D2D2D2D2D2D2D2D2D2D2D2D2D2D21D
:204E5E00D2D2D2D2D2D3D3D3D3D3D3D3D3D3D3D3D3D3D3D3D3D3D3D3D3D3D3D3D3D3D3D3D9
:204E7E00D3D3D4D4D4D4D4D4D4D4D4D4D4D4D4D4D4D4D4D4D4D4D4D4D4D4D4D4D4D4D5D594
:204E9E00D5D5D5D5D5D5D5D5D5D5D5D5D5D5D5D5D5D5D5D5D5D5D5D5D5D5D5D6D6D6D6D64F
:204EBE00D6D6D6D6D6D6D6D6D6D6D6D6D6D6D6D6D6D6D6D6D6D6D6D6D7D7D7D7D7D7D7D70C
:204EDE00D7D7D7D7D7D7D7D7D7D7D7D7D7D7D7D7D7D7D7D7D7D8D8D8D8D8D8D8D8D8D8D8C9
:204EFE00D8D8D8D8D8D8D8D8D8D8D8D8D8D8D8D8D8D8D8D9D9D9D9D9D9D9D9D9D9D9D9D987
:204F1E00D9D9D9D9D9D9D9D9D9D9D9D9D9D9D9D9D9DADADADADADADADADADADADADADADA44
:204F3E00DADADADADADADADADADADADADADADBDBDBDBDBDBDBDBDBDBDBDBDBDBDBDBDBDB01
:204F5E00DBDBDBDBDBDBDBDBDBDBDBDBDCDCDCDCDCDCDCDCDCDCDCDCDCDCDCDCDCDCDCDCBF
:204F7E00DCDCDCDCDCDCDCDCDCDCDCDDDDDDDDDDDDDDDDDDDDDDDDDDDDDDDDDDDDDDDDDD7E
:204F9E00DDDDDDDDDDDDDDDDDDDEDEDEDEDEDEDEDEDEDEDEDEDEDEDEDEDEDEDEDEDEDEDE3C
:204FBE00DEDEDEDEDEDEDEDEDFDFDFDFDFDFDFDFDFDFDFDFDFDFDFDFDFDFDFDFDFDFDFDFFB
:204FDE00DFDFDFDFDFDFE0E0E0E0E0E0E0E0E0E0E0E0E0E0E0E0E0E0E0E0E0E0E0E0E0E0B9
:204FFE00E0E0E0E0E0E1E1E1E1E1E1E1E1E1E1E1E1E1E1E1E1E1E1E1E1E1E1E1E1E1E1E178
:20501E00E1E1E1E1E2E2E2E2E2E2E2E2E2E2E2E2E2E2E2E2E2E2E2E2E2E2E2E2E2E2E2E236
:20503E00E2E2E2E2E3E3E3E3E3E3E3E3E3E3E3E3E3E3E3E3E3E3E3E3E3E3E3E3E3E3E3E3F6
:20505E00E3E3E3E4E4E4E4E4E4E4E4E4E4E4E4E4E4E4E4E4E4E4E4E4E4E4E4E4E4E4E4E4B5
:20507E00E4E4E4E5E5E5E5E5E5E5E5E5E5E5E5E5E5E5E5E5E5E5E5E5E5E5E5E5E5E5E5E575
:20509E00E5E5E5E6E6E6E6E6E6E6E6E6E6E6E6E6E6E6E6E6E6E6E6E6E6E6E6E6E6E6E6E635
:2050BE00E6E6E6E7E7E7E7E7E7E7E7E7E7E7E7E7E7E7E7E7E7E7E7E7E7E7E7E7E7E7E7E7F5
:2050DE00E7E7E7E8E8E8E8E8E8E8E8E8E8E8E8E8E8E8E8E8E8E8E8E8E8E8E8E8E8E8E8E8B5
:2050FE00E8E8E8E8E9E9E9E9E9E9E9E9E9E9E9E9E9E9E9E9E9E9E9E9E9E9E9E9E9E9E9E976
:04511E00E9E9E9E9E9
:20081000D283D282900001121442C283900001021442C283D282900001121442D283900081
:2008300001021442C282D283D2829000011214427F00BFFF00501030830D900001C00712A2
:200850001442D0070F80EBC282900001021442C282D283D282900001121442C282900001F9
:20087000021442E582900027F0E0FF7E00BE08005055C282900001C007C006121442D0069A
:20089000D0077407C39EFD8DF005F07D017C008006ED2DFDEC33FCD5F0F78F027B00EA5270
:2008B00005EB5204ED4C6004D2838002C283900001C007C006121442D28290000112144256
:2008D000D006D0070E80A6C282D283900001021442900028E4F0D283C28290000112144287
:2008F0007F00BF0800504BD282900001C007121442D007900029E4F03083178F067407C3F2
:200910009EF5F005F07401800225E0D5F0FB900029F0900029E0FE900028E04EF0900001EC
:20093000C007121442C282900001121442D0070F80B0900028E0F5822243C40C43C50CD2FB
:2009500082D28390000A021405E58290003AF012081090058BE0F582120873120834758267
:200970000012087312083490003AE0F582120873120834020822E58290003BF01208109088
:20099000058BE0F58212087312083475824012087312083490003BE0F58212087312083476
:2009B000020822E58290003DF090003CE024B0F58212095990003DE0FFFD5305F0E4C4CD06
:2009D000C4540F6DCD540FCD6DCD30E30244F04305108D82C007120959D00753070F8F8200
:2009F000020959E58290003EF012094990003EE090058BF07582AE120959758200120959B8
:200A10007582101209597582401209597582B01209597582811209597582FF120959758238
:200A3000A11209597582A61209597582A812095990058BE0FFBF7A0875823F1209598006FD
:200A500075821F1209597582C81209597582D31209597582001209597582D51209597582E9
:200A7000801209597582D81209597582051209597582D91209597582F11209597582DA123C
:200A9000095990058BE0FFBF7A0875821212095980067582021209597582DB1209597582F7
:200AB0003012095975828D1209597582141209597582AF120959758221120959758200125C
:200AD000095975827F12095975822212095975820012095990058BE0FFBF7A087582071272
:200AF00009598006758203120959020B14E58290003FF075828112095990003FE0547FF5E6
:200B10008202095990058BE0FFBF7A067E087F0080047E047F007F00C3EF9E503290003CFA
:200B3000EFF0758200C007C0061209B3D006D0077D00BD80005015758200C007C006C0055F
:200B5000120986D005D006D0070D80E60F80C922E582900040F0E0601275828D120959758F
:200B700082141209597582AF02095975828D1209597582101209597582AE020959AFF0AE88
:200B900083E582900044F0EEA3F0EFA3F090058BE0FFBF7A2C900044E0FCA3E0FDA3E0FE7F
:200BB0008C828D838EF0748012206D900041E0FCA3E0FDA3E0FE8C828D838EF074400220D6
:200BD0006DBF782C900044E0FDA3E0FEA3E0FF8D828E838FF0748012206D900041E0FDA3FE
:200BF000E0FEA3E0FF8D828E838FF0742002206D22E58290004BF090004AE024E0F0900031
:200C100048E0F582120656AD82AE83AFF090001C744CF07400A3F0E4A3F090001F744DF07E
:200C30007400A3F0E4A3F08D828E838FF0C007C006C005120693900041744FF07400A3F0FF
:200C5000E4A3F090004E75F000120B8DD005D006D00790004EE0FC7B0090004CE0F97A003A
:200C7000ECC399FCEB9AFB90004BE0F97A00C3EC99EB64808AF063F08095F0503190004B2D
:200C9000E4F090004DE0FC7B009000DF7408F0E4A3F08C828B83C007C006C00512264DAB4C
:200CB00082D005D006D007900047E0FC2BF090004AE0F51C900049E0F51A90004BE0F514FB
:200CD000900047E0F97800C00190004DE0F97A009000DF7408F0E4A3F089828A83C007C0FA
:200CF00006C005C001C00012264D858215858316D000D001D005D006D00788017A00C3E907
:200D10009515EA64808516F063F08095F0D001400122881B75150090004CE0F517C3E51582
:200D300095174003020DD5C001E515242AF518E43400F519851CF0E517A4F9ABF090004DF2
:200D5000E09000CDF0E4A3F089828B83C007C006C005C001C00012238FAA82AB839000DF66
:200D70007408F0E4A3F08A828B8312264DAA82AB83D000D001D005D006D0078517F0E51BD8
:200D9000A42AFAEB35F0FBA9157C00E92AFAEC3BFBEA2DFAEB3EFB8F048A828B838CF01297
:200DB00032FEFA851882851983F0D001E51A7010851882851983E0F4FC851882851983F039
:200DD0000515020D2790003CE829F0851482C007C006C005C001C0001209B3D000D001D0B9
:200DF00005D006D0077C0090004CE0FBC3EC9B502BEC242AF582E43400F583E0F582C007DA
:200E1000C006C005C004C001C000120986D000D001D004D005D006D0070C80CB08020CD716
:200E3000E582900056F0900051E0FFF582C007120656AC82AD83AEF090001C7457F0740022
:200E5000A3F0E4A3F090001F7458F07400A3F0E4A3F08C828D838EF0120693900041745AA9
:200E7000F07400A3F0E4A3F090005975F000120B8DD007900052E0FE900053E0FBA3E0FC28
:200E9000A3E0FD7A00C006EA2BF8E43CF98D06888289838EF01232FED006700122C0069034
:200EB000005AE0F9891D751E00900058E0F97E00E51DC399F9E51E9EFE9000DF7408F0E4C2
:200ED000A3F089828E83C007C006C005C004C003C00212264D85821D85831ED002D003D074
:200EF00004D005D006D007900050E0F87E00C3E51D98E51E64808EF063F08095F0D00650E6
:200F100024900056E4F0900050F0C007C006C005C004C003C002120B14D002D003D004D0FE
:200F300005D006D007C006EA2BF8E43CF98D06888289838EF01232FEF51D740AB51D0280B6
:200F500004D0068042D006900056E4F0900058E0F879009000DF7408F0E4A3F088828983B4
:200F7000C007C006C005C004C003C00212264DA882D002D003D004D005D006D0079000503C
:200F9000E0F928F0021058C003C004C005900056E0F9900050E0F8900047F0900048EFF0A5
:200FB000900049EEF090004AE51DF08982C007C006C005C004C003C002C001C000120C0158
:200FD000D000D001D002D003D004D005D006D007900057E0FD90005629F0900059E0FC7B62
:200FF000008D017D00ECC399FCEB9DFB900056E0F97D00C3EC99EB64808DF063F08095F0E7
:20101000D005D004D0035040C006900056E4F0900058E0F97E009000DF7408F0E4A3F0891A
:20103000828E83C007C005C004C003C002C00012264DA982D000D002D003D004D005D007D3
:20105000900050E928F0D0060A020E95C01F85811F900080122226AE82AF837D00E51F24A5
:20107000F7FCE51F24F7F89000CFE6F008E6A3F008E6A3F09000D2ECF08E828F838DF0C082
:2010900007C006C00512241FAB82AC83D005D006D007E51F24FCF8900050E6F0E51F24FB86
:2010B000F8900051E6F0E51F24FAF8900052E6F0900053EEF0EFA3F0EDA3F0E51F24FDF8BF
:2010D0008682C007C006C005C004C003120E30D003D004D005D006D0078E828F838DF0C047
:2010F00004C003121BDED003D0048B828C83D01F22C01FE581F51F2406F581E51F24FCF825
:201110008682120656AD82AE83AFF0E51F240290001CF0E4A3F07440A3F0AC1F0C90001F40
:20113000ECF0E4A3F07440A3F08D828E838FF0120693E51F2403FF7E007D40E51F2404909A
:201150000041F0E4A3F0EDA3F08F828E838DF0120B8D900080122226AE82AF837D00E51FC1
:2011700024F8FCE51F24F8F89000CFE6F008E6A3F008E6A3F09000D2ECF08E828F838DF01B
:20119000C007C006C00512241FAB82AC83D005D006D007E51F2405F8A60308A6048E828F9B
:2011B000838DF0C007C006C005123223AA82E51F2403F886037C009000DF7402F0E4A3F0C6
:2011D0008B828C83C00212264DAB82D002A81F08088AF0E6A4FAACF09000DF7402F0E4A3D0
:2011F000F08A828C83C00312264DAA82D003D005D006D007EBC39AFBE51F24FDF8900050CB
:20121000E6F0E51F24FCF8900051E6F0E51F24FBF8900052E6F0900053EEF0EFA3F0EDA36F
:20123000F08B82C007C006C005120E30D005D006D0078E828F838DF0121BDEE51F2405F8AE
:0B1250008682088683851F81D01F2244
:01519D007899
:04008D00C200C201EA
:20125B00AFF0AE83E582900060F0EEA3F0EFA3F090005BE4F0A3F0900060E0FDA3E0FEA316
:20127B00E0FF90005DE0FC90005EE0FAA3E0FB90005BE0F8A3E0F9C3E89AE99B5028C00223
:20129B00C003E82DF8E93EF98F03888289838BF0EC12206D90005BE02401F0A3E03400F00E
:2012BB00D003D00280C922AFF0AE83E582900068F0EEA3F0EFA3F0900068E0FDA3E0FEA3E8
:2012DB00E0FF900063E0F534A3E0F535A3E0F536C034C035C0368D828E838FF01200061512
:2012FB008115811581400302137A90005BE4F0A3F08D2D8E2E8F2F900066E0F530A3E0F55B
:20131B003190005BE0F532A3E0F533E532252DF537E533352EF538852F39E5322534FAE56B
:20133B00333535FBAC368A828B838CF01232FE8537828538838539F012206D90005BE0FBAF
:20135B00A3E0FC90005B74012BF0E43CA3F090005BE0FBA3E0FCEBB530A7ECB531A32290E2
:20137B000066E0FBA3E0FC1BBBFF011C90005BEBF0ECA3F090005BE0FBA3E0FCEB2DF8EC1A
:20139B003EF98F02C005C006C007EB2534FBEC3535FCAF368B828C838FF01232FE88828932
:2013BB00838AF012206D90005BE0F537A3E0F538D007D006D00590005BE0F5F0A3E045F0E5
:2013DB006014E53724FFFBE53834FFFC90005BEBF0ECA3F0809E2275A15575A1AA53B3E062
:2013FB0043B30775B2FC75A1FF22AF83E58290006BF0EFA3F090006BE0FEA3E0FFEE4F607D
:20141B001D9003E8C007C006121442D006D0071EBEFF011F90006BEEF0EFA3F080DF900032
:20143B006BEEF0EFA3F022AF83E58290006DF0EFA3F090006DE0FEA3E0FFEE4F603505A1C7
:20145B0005A105A105A105A105A105A105A105A105A105A105A105A105A105A105A105A111
:20147B0005A105A11EBEFF011F90006DEEF0EFA3F080C790006DEEF0EFA3F02253C9BFC24A
:20149B00C975CC5F75CDF075CA5F75CBF0D2CAD2AD22C0E0C082C083C0D075D00810CF02A8
:2014BB00802190058CE0FCA3E0FDA3E0FEA3E0FF90058C74012CF0E43DA3F0E43EA3F0E4F1
:2014DB003FA3F0D0D0D083D082D0E03290058CE0FCA3E0FDA3E0FEA3E08C828D838EF022B9
:2014FB00AF82AE83ADF0FC900075EFF0EEA3F0EDA3F0ECA3F0C29FD29EC29DC2CCC2CD43E2
:20151B008780900075E0FCA3E0FDA3E0FEA3E0FF9000AFECF0EDA3F0EEA3F0EFA3F09038DF
:20153B000075F09C741C121F46AC82AD83AEF0FFEDC4CCC4540F6CCC540FCC6CCCFDEEC49B
:20155B0054F04DFDEFC4CEC4540F6ECE540FCE6ECEFF9000A6740AF0E4A3F0A3F0A3F08CC5
:20157B00828D838EF0EFC007C006C005C004121D35A882D004D005D006D007900073E8F07C
:20159B009000AF740AF0E4A3F0A3F0A3F08C828D838EF0EFC000121F46AC82AD83AEF0FF29
:2015BB00D00090006FECF0EDA3F0EEA3F0EFA3F0B80500401390006F74012CF0E43DA3F08E
:2015DB00E43EA3F0E43FA3F0740F55894420F58943C9A090006FE0FCA3E0A3E0A3E0C3E48B
:2015FB009CF58DD28ED299D29CD2AC22C0E0C0F0C082C083C0D075D0081099028002C20038
:20161B00109802806F30014B9005B1E0FDA3E0FEA3E0FF9005B4E0FBA3E0FCEB2DFDEC3E92
:20163B00FE8D828E838FF0E59912206D9005B4E02401F0A3E03400F09005B4E0FEA3E0FF47
:20165B009005B6E0FCA3E0FDC3EE9CEF9D4025C20180219005B0E0FFBF200050179005B077
:20167B00E02490F582E43405F583E599F09005B0E0FF04F0D0D0D083D082D0F0D0E032E55D
:20169B0082900079F02000FDD200900079E0F59922AFF0AE83E58290007AF0EEA3F0EFA3E8
:2016BB00F090007AE0FDA3E0FEA3E0FF8D828E838FF01232FEFC60230DBD00010E90007AF2
:2016DB00EDF0EEA3F0EFA3F08C82C007C006C00512169AD005D006D00780D190007AEDF033
:2016FB00EEA3F0EFA3F0229005B0E06060900590E0900074F09005B0E014F0E060259005A9
:20171B00B0E0FF7E009000637491F07405A3F0E4A3F0900066EFF0EEA3F090059075F00056
:20173B001212C29005B0E02490FFE43405FE7D0090005DE4F090005E04F0E4A3F08F828E7F
:20175B00838DF012125B900074E0F5822275820022AFF0AE83E58290007EF0EEA3F0EFA311
:20177B00F09005B0E0FF90007DE0FEC3EF9E500302182D90007EE0FCA3E0FDA3E0FF9000E9
:20179B00637490F07405A3F0E4A3F08E027B00900066EAF0EBA3F08C828D838FF0C006C0D8
:2017BB0003C0021212C2D002D003D0069005B0E0C39EF0E06035EE2490FEE43405FF7D00C4
:2017DB009005B0E0F97C00900063EEF0EFA3F0EDA3F0900066E9F0ECA3F090059075F000A9
:2017FB00C003C0021212C2D002D0039005B0E02490FFE43405FE7D0090005DE4F090005E9F
:20181B00EAF0EBA3F08F828E838DF012125B7582012275820022AFF0AE83E582900083F0CA
:20183B00EEA3F0EFA3F0900083E0FDA3E0FEA3E0FF900083E0F5F0A3E045F060269005B13B
:20185B00EDF0EEA3F0EFA3F09005B4E4F0A3F0900081E0FEA3E0FF9005B6EEF0EFA3F0D2EF
:20187B00018030900081E0F5F0A3E045F0600D9005B4E0FEA3E0FF8E828F8322C20190055C
:20189B00B1E4F0A3F0A3F09005B4F0A3F09005B6F0A3F090000022AF82AE83ADF0FC9000AB
:2018BB0086EFF0EEA3F0EDA3F0ECA3F0439380759701900086E0FCA3E0FDA3E0FEA3E0FF50
:2018DB009000AFECF0EDA3F0EEA3F0EFA3F090870075F0937403121F46AC82AD83AEF0FF57
:2018FB009000A6740AF0E4A3F0A3F0A3F08C828D838EF0EFC007C006C005C004121D35A8DF
:20191B0082D004D005D006D007900073E8F09000AF740AF0E4A3F0A3F0A3F08C828D838E03
:20193B00F0EFC000121F46AC82AD83AEF0FFD00090006FECF0EDA3F0EEA3F0EFA3F0B80590
:20195B0000401390006F74012CF0E43DA3F0E43EA3F0E43FA3F090006FE0FCA3E0FDA3E08C
:20197B00A3E08D918C9A53937F43A2104393035393F3439120439408900073E592F0E597C0
:20199B007597FFD2EC021497E58290008AF0E59530E5FB90008AE0F59A22AFF0AE83E582D9
:2019BB0090008BF0EEA3F0EFA3F090008BE0FDA3E0FEA3E0FF8D828E838FF01232FEFC60C6
:2019DB00230DBD00010E90008BEDF0EEA3F0EFA3F08C82C007C006C0051219A3D005D0061C
:2019FB00D00780D190008BEDF0EEA3F0EFA3F0221214E7AC82AD83AEF0FF90008EECF0ED98
:201A1B00A3F0EEA3F0EFA3F0E59520E03D1214E7AC82AD83AEF0FF90008EE0F8A3E0F9A341
:201A3B00E0FAA3E0FBECC398FCED99FDEE9AFEEF9BFFC374E89C74039DE49EE49F50C990E1
:201A5B00008EE4F0A3F0A3F0A3F0859A8222AFF0AE83E582900094F0EEA3F0EFA3F09000AF
:201A7B0092E4F0900094E0FDA3E0FEA3E0FF900093E0FC900092E0FBC39C5053EB2DF9E4EE
:201A9B003EFA8F03C007C006C005C004C003C002C001121A0BA882D001D002D003D004D08A
:201ABB0005D006D00789828A838BF0E812206D90008EE0F5F0A3E042F0A3E042F0A3E0452A
:201ADB00F07003F58222900092E02401F080A475820122AF82AE83ADF0FC900097EFF0EEAB
:201AFB00A3F0EDA3F0ECA3F043BA0453C6FD43A301900097E0FCA3E0FDA3E0FEA3E0FF9025
:201B1B0000D6ECF0EDA3F0EEA3F0EFA3F0900064E4F5F01224DCAC82AD83AEF0FF9000AF6C
:201B3B00ECF0EDA3F0EEA3F0EFA3F0906C0075F0DC7402121F46AC82AD83AEF0FF90006F07
:201B5B00ECF0EDA3F0EEA3F0EFA3F08CA4740F5DF5A553A3FE75A66475A70043AA2853AAC0
:201B7B00FD43AA04E4F5AEF5AF22E58290009BF0E0FF8FAE75AF002275B93F43F60475EF1D
:201B9B0006900064021442E58290009CF0E053E007F090009CE0FF8FF005F07401800225B0
:201BBB00E0D5F0FBF5F343F28090003212144253F27FE5F130E4FB43F110AEF4AFF58E8260
:031BDB008F8322D3
:20519E000000000000000000000000000000000000000000000000000000000000000000F1
:0C51BE00000000000000000000000000E5
:201BDE00AFF0AE83E58290009DF0EEA3F0EFA3F090009DE0FDA3E0FEA3E090009DE0F5F090
:201BFE00A3E045F07001229000A2E4F0A3F09000C5E0FBA3E0FC9000A0EBF0ECA3F090001A
:201C1E00A474C5F07400A3F09000A0E0FBA3E0FC4B60418B018C02C003C0048D008E04C3D9
:201C3E00E998EA9CD004D003502A9000A2EBF0ECA3F074022BFBE43CFC9000A4EBF0ECA37C
:201C5E00F08B828C83E0FBA3E0FC9000A0EBF0ECA3F080B49000A0E0FEA3E0FF90009DE0A5
:201C7E00FBA3E0FCA3E0EB24FEFBEC34FFFC74022BFAE43CFD8A828D83EEF0EFA3F0900062
:201C9E00A4E0F8A3E0F988828983EBF0ECA3F08B828C83E0F8A3E0F9EEB50033EFB5012FA4
:201CBE0088828983A3A3E0FEA3E0FF8A828D83EEF0EFA3F08B828C83E0FEA3E0FF8E828FB3
:201CDE0083E0FEA3E0FF8B828C83EEF0EFA3F09000A2E0FEA3E0FF4E603C8E828F83E0F811
:201CFE00A3E0F9E8B5032FE9B5042B8B828C83E0FBA3E0FC8E828F83EBF0ECA3F074022E18
:171D1E00FEE43FFF8A828D83E0FAA3E0FD8E828F83EAF0EDA3F0227A
:201D3500AF82AE83ADF0FC9000AAEFF0EEA3F0EDA3F0ECA3F09000AEE4F09000AAE0FCA32F
:201D5500E0FDA3E0FEA3E0FF7B009000A6E0F52DA3E0F52EA3E0F52FA3E0F530235401FA74
:201D75007074C003E52D252DF8E52E33F9E52F33FAE53033FB9000A6E8F0E9A3F0EAA3F081
:201D9500EBA3F09000A6E0F52DA3E0F52EA3E0F52FA3E0F530C3EC952DED952EEE952FEFC1
:201DB5009530D0035027E530C313F530E52F13F52FE52E13F52EE52D13F52D9000A6F0E509
:201DD5002EA3F0E52FA3F0E530A3F080090B9000AEEBF0021D5F9000AEE0FF9000AAE0FB81
:201DF500A3E0FCA3E0FDA3E0FE9000A6E0F52DA3E0F52EA3E0F52FA3E0F530C3EB952DECC5
:201E1500952EED952FEE953040179000AAEBC3952DF0EC952EA3F0ED952FA3F0EE9530A3B9
:201E3500F09000A6E0FBA3E0FCA3E0FDA3E0C313FEED13FDEC13FCEB139000A6F0ECA3F09B
:201E5500EDA3F0EEA3F08F061FEE708F9000AAE0FCA3E0FDA3E0FEA3E08C828D838EF02273
:201E7500121F18BC0003022803EF60FA30D502B2D1E583B4FF03022819E582B4FF0302289D
:201E950019258340072482400B0228032483145003022819F582EA8DF0A4A8F0EA8EF0A490
:201EB50028F8E435F0F9EB8DF0A428E935F0F9E433CA8FF0A429F9EA35F0FAEBF88EF0A47C
:201ED50029F9EA35F0FAE433FBEC8DF0A429F9EA35F0FAE43BFBE88FF0A42AFAEB35F0FB24
:201EF500E433CCFD8EF0A42AFAEB35F0FBE43CFCED8FF0A42BFBEC35F0FC20E70312203AC7
:031F15000227E2BE
:201F1800AA82AB83A2F73392D1F5826002D2F7ACF0E58124F9F8E6FD08E6FE0886F008E62C
:0E1F3800A2F73392D5F5836002D2F7AFF02204
:201F4600AF82AE83ADF0FC9000B3EFF0EEA3F0EDA3F0ECA3F09000B7E4F0A3F0A3F0A3F00A
:201F66009000AFE0FCA3E0FDA3E0FEA3E0FF7B20C0039000B3E0F8A3E0F9A3E0FAA3E0FBCD
:201F86009000BB235401F0E828F8E933F9EA33FAEB33FB9000B3E8F0E9A3F0EAA3F0EBA399
:201FA600F09000B7E0F8A3E0F9A3E0FAA3E0FBE828F8E933F9EA33FAEB33FB9000B7E8F029
:201FC600E9A3F0EAA3F0EBA3F0D0039000BBE060089000B7E043E001F09000B7E0F52DA3F7
:201FE600E0F52EA3E0F52FA3E0F530C3E52D9CE52E9DE52F9EE5309F401F9000B7E52DC387
:202006009CF0E52E9DA3F0E52F9EA3F0E5309FA3F09000B3E043E001F01BEB6003021F7628
:142026009000B3E0FCA3E0FDA3E0FEA3E08C828D838EF02245
:06006300E478FFF6D8FD71
:20203A007804EC7011E58224F8500AF582E4C9CACBFCD8EF22EC7820058220E713D58201A5
:13205A0022C3E933F9EA33FAEB33FBEC33FCD8EA158222B3
:20004100799BE94400601B7A0190512F781D75A005E493F2A308B8000205A0D9F4DAF27528
:02006100A0FFFE
:1B206D0020F71130F6138883A88220F509F6A8837583002280FEF280F5F02272
:20208800AFF0AE83E5829000C2F0EEA3F0EFA3F09000C2E0FDA3E0FEA3E0FF9000BDE0F568
:2020A8002DA3E0F52EA3E0F52F852D30852E31852F327533008D028E038F048C017C00C3CB
:2020C800E5309AE5319BE53299E5339C40030221558D028E038F049000C0E0F8A3E0F9E83A
:2020E8002AFAE93BFB1ABAFF011BC005C006C007AD2DAE2EAF2FE82DFDE93EFEED24FFF584
:2021080030EE34FFF5318F3288348935D007D006D005A834A935153474FFB534021535E8F0
:202128004970030221B38530828531838532F01232FEF9153074FFB5300215318A828B83B4
:202148008CF0E912206D1ABAFF011B80C58D028E038F04C005C006C007A82DA92EAF2F8828
:202168003089318F329000C0E0F534A3E0F535D007D006D005A834A935153474FFB53402C3
:202188001535E84960258530828531838532F01232FEF9A38582308583318A828B838CF03C
:1221A800E912206DA3AA82AB8380CA8D828E838FF02295
:2021BA00FFA881181812276AD2D133E6400730E70B7582002220E70675820122C2D11227D9
:1021DA004CE97003F5822220D101B3E433F582225F
:2021EA009000C5741DF07401A3F090512DE493FE740193FF1EBEFF011FEE241DFEEF340121
:20220A00FF90011DEEF0EFA3F09000C5E0FEA3E0FF8E828F83A3A3E4F0A3F022AF83E58268
:20222A009000C7F0EFA3F09000C5E0F5F0A3E045F070031221EA9000C7E0FEA3E0FF4E6004
:20224A000E74022EFCE43FFDC3EC9EED9F5004900000229000C774022EF0E43FA3F0900096
:20226A00C7E0FEA3E0FFC3EE9404EF940050099000C77404F0E4A3F09000C5E0FEA3E0FF1D
:20228A009000C9EEF0EFA3F09000CB74C5F07400A3F09000C9E0FEA3E0FF4E700302238BC6
:2022AA008E828F83E0FCA3E0FD8C028D038E008F01EAC398FAEB99FB8A008B019000C7E04F
:2022CA00F521A3E0F522C3E89521E99522500302236874042521F8E43522F9C3EA98EB99B0
:2022EA00404C8E028F03E5212AFAE5223BFB8A828B83ECF0EDA3F074022AFCE43BFD8E8281
:20230A008F83A3A3E0F8A3E0F98C828D83E8F0E9A3F09000CBE0FCA3E0FD8C828D83EAF0E6
:20232A00EBA3F08E828F83EAF0EBA3F0801C9000CBE0FCA3E0FD8E828F83A3A3E0FAA3E083
:20234A00FB8C828D83EAF0EBA3F09000C9E0FCA3E0FD74022CFCE43DFD8C828D83227402DB
:20236A002EFEE43FFF9000CBEEF0EFA3F08E828F83E0FEA3E0FF9000C9EEF0EFA3F00222EB
:05238A009C9000002200
:20238F00AA83AB828BF09000CDE0A4F8A9F08AF0E0A429F98BF0A3E0A429F5838882222236
:2023AF00C01F85811FC082058105810581E51F24FBF8A91F0909E6F70809E6F70809E6F788
:2023CF00A81F080886820886830886F01232FEFAA31232FEFBA31232FEFF74012AFCE43BC6
:2023EF00FD8F06A81F080886820886830886F0EC12206DA3ED12206DA3EE12206D8A828B4D
:20240F00838FF0A81F08E612206D851F81D01F22AFF0AE83E5829000D3F0EEA3F0EFA3F094
:20242F009000CFE0FDA3E0FEA3E0FF9000D2E0FC9000FB74D3F07400A3F0E4A3F09000FE42
:20244F00EDF0EEA3F0EFA3F0900101ECF09023AF122908AE82AF839000D3E0FBA3E0FCA3B8
:20246F00E0FD8B828C838DF0E412206D8E828F8322C01FE581F51F24F8FFE51F24FBFE7DFE
:20248F00007C409000FBEEF0EDA3F0ECA3F0E51F24F8F89000FEE6F008E6A3F008E6A3F08B
:2024AF00900101EFF09023AF122908AE82AF83E51F24FBF886030886040886058B828C83B0
:0D24CF008DF0E412206D8E828F83D01F22CD
:2024DC00A882A983AAF0FB88F09000D6E0A4FCADF089F0E0A42DFDE435F0FE88F0A3E0A42D
:2024FC002DFDE5F03EFEE433FF89F0E0A42EFEE5F03FFF88F0A3E0A42EFEE5F03FFF8AF0DB
:20251C009000D6E0A42EFEE5F03FFF8BF0E0A42FFF8AF0A3E0A42FFF89F0A3E0A42FFF8824
:0C253C00F0A3E0A42F8EF08D838C82228F
:20254800AF83E5829000DCF0EFA3F09000DEE4F09000DCE0FEA3E0FF7D009000DAE0FBA389
:20256800E0FC235401FA7036EB2BFBEC33FC9000DAEBF0ECA3F09000DAE0FBA3E0FCC3EEFA
:202588009BEF9C5011ECC313CB13CBFC9000DAEBF0ECA3F080080D9000DEEDF080BC9000D5
:2025A800DEE0FF9000DCE0FDA3E0FE9000DAE0FBA3E0FCC3ED9BEE9C400B9000DCEDC39BF1
:2025C800F0EE9CA3F09000DAE0FDA3E0C313CD13CDFE9000DAEDF0EEA3F08F061FEE70C3FE
:0C25E8009000DCE0FEA3E08E82F5832270
:200069007800E84400600A790175A000E4F309D8FC781CE84405600C7906900001E4F0A36E
:04008900D8FCD9FACC
:2025F400121F187900E583B58202800D5003123209E583C3958212335AE5D0C465D020E1A7
:2026140017EA2DFAEB3EFBEC3FFC5009740112335AEC4480FC0227E2C3EA9DFAEB9EFBEC5B
:192634009FFC500FC3E499F9E49AFAE49BFBE49CFCB2D112203A0227E2F2
:20264D00AF83E5829000E1F0EFA3F09000E1E0FEA3E0FF30E709C3E49EFCE49FFD80048E2D
:20266D00048F059000DFE0FEA3E0FF33E433FB6009C3E49EF9E49FFA80048E018F02900049
:20268D00E3E9F0EAA3F08C828D83C0031226BFAE82AF83D0039000E1E0A3E033E4336B60FE
:1226AD000CC3E49EFCE49FFD8C828D83228E828F8322CA
:2026BF00AF83E5829000E5F0EFA3F09000E7E4F0A3F09000E3E0FEA3E0FF7D109000E5E0E8
:2026DF00FBA3E0FC9000E9235401F0EB2BFBEC33FC9000E5EBF0ECA3F09000E7E0FBA3E0B0
:2026FF00FCEB2BFBEC33FC9000E7EBF0ECA3F09000E9E060089000E7E043E001F09000E71F
:20271F00E0FBA3E0FCC3EB9EEC9F40139000E7EBC39EF0EC9FA3F09000E5E043E001F0DDFF
:0D273F009B9000E5E0FEA3E08E82F5832272
:20274C007901AA82E68F82B5821318E6B5F00E18E6B5830918E68A82B58202790022B48084
:20276C000FE5F0700AE5837006E58270027F00EFB6801518B6001018B6000B18B6000608EC
:09278C0008087600220808082262
:2027950012339D700AE582458345F0700122E430D112F4700BE5F0F47006E58330E701228A
:1427B50090800022700AE5F07006E58320E70122907FFF2257
:0D27C900AC83AB827A007900748E0233235A
:0C27D600E4AC83AB82FAF9748E0233503D
:2027E200B98003EA13B34010EA2401FAE43BFBE43CFC50047C800582BC000EBB000BBA003B
:2028020008E4F5F0F583F58222A2D1E582138CF092F78B838A8222E4F583F58275F080F4FA
:0F282200A2D11322E4F583F58275F0C0747F22F2
:20283100E5829000F7F0E0FF9000EDE0C0E0A3E0C0E0A3E0C0E012284C800D9000EBE0C059
:20285100E0A3E0C0E08F82221581158115819000F5E02401F0A3E03400F022E5829000F83D
:20287100F0E02430FF24C6500D74072FFF9000EAE060034307208F82022831E5829000F9B1
:20289100F0E0FFC4540FF582C00712286CD00753070F8F8202286CE5829000FAF09000F005
:2028B100E0FCA3E0FDA3E0FEA3E0FF9000F4E0FB752D209000FAE0F98B00E828F8EF23542B
:2028D1000148FBEC2CFCED33FDEE33FEEF33FFC3EB994007EBC399FB430401E52D14FA8A70
:2028F1002D70D59000F0ECF0EDA3F0EEA3F0EFA3F09000F4EBF022AF83E582900102F0EFEA
:20291100A3F0900102E0FEA3E0FF9000EBEEF0EFA3F09000FBE0FDA3E0FEA3E0FF9000ED5D
:20293100EDF0EEA3F0EFA3F09000F5E4F0A3F09000FEE0FDA3E0FEA3E0FF8D828E838FF0AD
:202951001232FEFC9000FE74012DF0E43EA3F0EFA3F0EC70030231FDBC250280030231F5B4
:20297100900104E4F0900105F0900106F0900107F0900108F0900109F090010AF090010B0E
:20299100F090010DF090010EF0A3F090011014F0A3F09000FEE0FDA3E0FEA3E0FF8D828E43
:2029B100838FF01232FEFBA3AD82AE839000FEEDF0EEA3F0EFA3F0900114EBF0BB25088B63
:2029D10082122831022940BB30005003022AA1EB24C65003022AA1900110E0F523A3E0F57D
:2029F1002474FFB52363B52460C005C006C00790010EE0FAA3E0FF9000CDEAF0EFA3F09025
:202A1100000AC005C00312238FAE82AF83D003D0058B027D00EA2EFEED3FFFEE24D0FEEF2B
:202A310034FFFF90010EEEF0EFA3F0D007D006D00590010EE0F5F0A3E045F060030229AE7A
:202A51009001057401F00229AEC005C006C0079000CDE523F0E524A3F090000AC006C00529
:202A7100C00312238FAA82AF83D003D005D0067E00EB2AFAEE3FFFEA24D0FAEF34FFFF90A0
:202A91000110EAF0EFA3F0D007D006D0050229AE900114E0FBBB2E2FC005C006C0079001E2
:202AB10010E0FAA3E0FFBAFF05BFFF028009D007D006D0050229AED007D006D00590011014
:202AD100E4F0A3F00229AEBB61004014EB2485400F90011474DF5BF09000EA7401F08005AB
:202AF1009000EAE4F0900114E0FBBB20028075BB2B028067BB2D028059BB4202806FBB43A7
:202B110002807CBB4403022D98BB4603022DBEBB48030229AEBB4903022D98BB4A0302290C
:202B3100AEBB4C028050BB4F03022DA6BB5003022D06BB53028077BB54030229AEBB5503D3
:202B5100022DAEBB5803022DB6BB5A030229AE022DC69001047401F00229AE9001067401C7
:202B7100F00229AE9001077401F00229AE9001097401F00229AE90010A7401F00229AE9064
:202B91000109E0600E900101E014F9F0900114E7F0800F900101E024FEFFF08F019001149A
:202BB100E7F0900114E0F582122831022DD5900101E024FDFFF08F018705098706098707F7
:202BD10019199000F0EDF0EEA3F0EFA3F08D828E838FF0123223858223858324900110E075
:202BF100FAA3E0FDBAFF0DBDFF0A900110E523F0E524A3F0900104E0704B90010EE0FAA33D
:202C1100E0FDC3E5239AE5249D503A90010EEAC39523F0ED9524A3F090010EE0FAA3E0FD0B
:202C31008A068D071ABAFF011DEE4F6010758220C005C002122831D002D00580E390010E0F
:202C5100EAF0EDA3F0900110E0F526A3E0F5279000F0E0FAA3E0FDA3E0FF8A828D838FF0D7
:202C71001232FEF525603CC3E4952674808527F063F08095F0502C152674FFB526021527BE
:202C91008525821228319000F0E0FAA3E0FDA3E0FF0ABA00010D9000F0EAF0EDA3F0EFA3F2
:202CB100F080AC900104E07003022DD590010EE0FEA3E0FFC3E5239EE5249F4003022DD5A4
:202CD10090010EEEC39523F0EF9524A3F090010EE0FEA3E0FF8E028F051EBEFF011FEA4D5B
:202CF1007003022DCD758220C007C006122831D006D00780E0900101E024FDFDF08D0187A3
:202D11002809872909872A19199000F0E528F0E529A3F0E52AA3F09000F2E0FDBD80004039
:202D3100089001147443F08020BD600040089001147450F08013BD40004008900114744996
:202D5100F080069001147458F0900114E0FDF582C00512283175823A122831758230122865
:202D710031758278122831D005BD4902800EBD500280099000F1E0F58212288C9000F0E036
:202D9100F58212288C803D9001087401F090010D740AF0802F90010D7408F0802790010D20
:202DB100740AF0801F90010D7410F0801790010B7401F0800F8B82122831800890010EEE2F
:202DD100F0EFA3F090010BE06071900101E024FCFFF08F01870309870509870609870719AD
:202DF10019199000F0EBF0EDA3F0EEA3F0EFA3F09000F07422F07451A3F07480A3F090003D
:202E1100F0E0F528A3E0F529A3E0F52A74012528FAE43529FBAF2A9000F0EAF0EBA3F0EFD8
:202E3100A3F0852882852983852AF01232FEFF70030229408F8212283180C390010DE07023
:202E510003022940900109E06047900101E014F9F087077E007D007B009000F0EFF0EEA36F
:202E7100F0EDA3F0EBA3F0900108E06003022F189000F0E0FBA3E0A3E0A3E07D007E007FD0
:202E9100009000F0EBF0EDA3F0EEA3F0EFA3F0807690010AE06028900101E024FCFFF08F3A
:202EB1000187030987050987060987071919199000F0EBF0EDA3F0EEA3F0EFA3F080489033
:202ED1000101E024FEFFF08F01870609870719EF3395E0FDFB9000F0EEF0EFA3F0EDA3F032
:202EF100EBA3F0900108E0701E9000F0E0FBA3E0FDA3E0A3E07E007F009000F0EBF0EDA373
:202F1100F0EEA3F0EFA3F0900108E060419000F0E0FBA3E0FDA3E0FEA3E0FF30E72B9000E3
:202F3100F0E0FBA3E0FDA3E0FEA3E0FFC3E49BFBE49DFDE49EFEE49FFF9000F0EBF0EDA38A
:202F5100F0EEA3F0EFA3F08005900108E4F090010C7401F090010DE0F526752B1A752C0184
:202F7100E4F523F5249000F4E4F08526821228A890010CE070269000F4E0C4F528852B823A
:202F9100852C83E0FFE5284207852B82852C83EFF0152B74FFB52B02152C800C9000F4E0AC
:202FB100FF852B82852C83F00523E4B52302052490010CE0B40100E433F09000F0E0FAA366
:202FD100E0FBA3E0FEA3E0FFEA4B4E4F709790011BE52BF0E52CA3F0900112E523F0E52435
:202FF100A3F090010EE0F5F0A3E045F0700990010E7401F0E4A3F0900105E0FFE070479081
:203011000104E0704185232B85242C90010EE0FAA3E0FBC007AF2B0F8F067F00C3EE9AEF6C
:203031009BD0075019758220C007C003C002122831D002D003D0071ABAFF011B80D5900185
:203051000EEAF0EBA3F0900108E0602075822DC007122831D00790010EE024FFFDA3E0347D
:20307100FFFE90010EEDF0EEA3F08056900112E0F5F0A3E045F0604A900106E060207582B7
:203091002BC007122831D00790010EE024FFFDA3E034FFFE90010EEDF0EEA3F08024900166
:2030B10007E0601E758220C007122831D00790010EE024FFFDA3E034FFFE90010EEDF0EEBD
:2030D100A3F0900104E07048900112E0F52BA3E0F52C90010EE0FAA3E0FBC0078A068B07F8
:2030F1001ABAFF011BC3E52B9EE52C9FD0075053EF60067D307E0080047D207E008D82C047
:2031110007C003C002122831D002D003D00780CA90010EE0FEA3E0FF900112E0F52BA3E0BC
:20313100F52CC3E52B9EE52C9F500F90010EEEC3952BF0EF952CA3F0801190010EE4F0A3F3
:20315100F0800890010EEAF0EBA3F090011BE0FEA3E0FF900112E0F52BA3E0F52CAA2BAD1A
:203171002C152B74FFB52B02152CEA4D604590010CE0B40100E433F090010CE070140EBE5A
:2031910000010F8E828F83E0C4540FFD9000F4F0800E8E828F83E0FD53050F9000F4EDF01F
:2031B1009000F4E0F582C007C00612286CD006D00780AA900104E0700302294090010EE047
:2031D100FEA3E0FF8E038F051EBEFF011FEB4D7003022940758220C007C006122831D00643
:1831F100D00780E08C821228310229409000F5E0FEA3E08E82F583221B
:0B5122003C4E4F20464C4F41543E00D5
:1A320900E582C583F582A2D133A2D592D11392D5ECCFFCEBCEFBEACDFA224D
:02512D0000047C
:18322300AA82AB831232FE6003A380F8C3E5829AF582E5839BF58322A1
:20000600E58124FCC3C8C0E0C082E608467006E5824583601218E58296F58208E5839642C8
:0E0026008208E5F0964582D082C8D0E0C8225C
:20323B00121F1830D502B2D1BF0009BC0003022826022819BC0003022803E583B4FF0BE58F
:20325B0082B4FF03022826022803E582B4FF03022819C395835007247F400B02280324804D
:20327B00145003022819F582C3ED9AEE9BEF9C40111582C3EA33F9EB33FAEC33FBE433FCAE
:20329B008005E4CCCBCAF9C08275F019C3E99DEA9EEB9FEC9400D5F002802D400EE99DF974
:2032BB00EA9EFAEB9FFBEC9400FCC3B3E833F8E58233F582E58333F583C3E933F9EA33FAD4
:2032DB00EB33FBEC33FC80C4B3E4F938FAE43582FBE43583FCD082500405827C8012203AD6
:0332FB000227FAAD
:0D0034007581391233F8E582600302000384
:1C32FE0020F71430F6148883A88220F507E6A88375830022E280F7E49322E022DF
:20331A00FCABF0AA83A982749EF582C2D1EC30E716D2D1E9F42401F9EAF43400FAEBF434B2
:0D333A0000FBECF43400FC12203A0227E204
:13334700FCABF0AA83A982749EC2D1F58212203A0227E2F1
:20335A006040F82582500274FFF582E824F8501ECCCBCAF9E4CC24F85014CBCAF9E4CB247B
:20337A00F8500BCAF9E4CA24F8500379002224086010F8C3EC13FCEB13FBEA13FAE913F92E
:03339A00D8F12245
:20339D001233FCC3749E95824039790012335A30D126E9F42401F582EAF43400F583EBF449
:2033BD003400F5F0ECF43400700AE582458345F0700122E430E70F22EC20E71489828A8307
:1B33DD008BF02230D10AE4F582F583F5F074802274FFF582F583F5F0747F2203
:0433F80075820022B8
:1233FC00AA82AB83A2F73392D1F5826002D2F7ACF022D6
:00000001FF
